:020000040800F2
:10000000D006002045010008490100084B01000806
:100010004D0100084F0100085101000800000000D8
:100020000000000000000000000000005301000874
:1000300055010008000000005701000859010008A0
:100040005B0100085B0100085B0100085B01000820
:100050005B0100085B0100085B0100085B01000810
:100060005B0100085B0100085B0100085B01000800
:100070005B0100085B0100085B0100085B010008F0
:100080005B0100085B0100085B0100085B010008E0
:100090005B0100085B0100085B0100085B010008D0
:1000A0005B0100085B0100085B0100085B010008C0
:1000B0005B010008550800085B0100085B010008AF
:1000C0005B0100085B0100085B0100085B010008A0
:1000D0005B010008D50800085B0100085B0100080F
:1000E0005B0100085B0100085B0100085B01000880
:1000F0005B0100085B0100085B0100085B01000870
:100100005B0100085B0100085B0100085B0100085F
:100110005B0100085B0100085B0100085B0100084F
:100120005B0100085B0100085B0100085B0100083F
:10013000DFF80CD000F042F900480047F50F000846
:10014000D006002005480047FEE7FEE7FEE7FEE791
:10015000FEE7FEE7FEE7FEE7FEE7FEE73101000807
:10016000F0B480EA0102D40F4200B2EB410F02D298
:100170000246084611464A0042D0C30DDDB2C1F323
:10018000C752AD1A202D35DAC1F3160141F4000231
:1001900004B15242C5F1200602FA06F12A41104488
:1001A000B3EBD05F23D0C4B1012DA0EBC35009DC69
:1001B000F0BC4FF0004202EAC352DBB200F500008F
:1001C00000F0CEB8400000F1807000EBC350A0F109
:1001D000807040EAD170490009E0490841EAC071E5
:1001E000A0EBC35000F50000400800EBC350F0BC8A
:1001F00000F0ADB86142012202EB4101001BF6E7BD
:10020000F0BC704781F00041AAE780F00040A7E70A
:1002100080EA010210B502F00043400022D04A00FB
:100220001FD0010E01EB1261C0F35600C2F356025B
:1002300040F4000042F40002A0FB022000047F39D9
:10024000140400D0401C50EA124001D44000491E62
:10025000C2B20C0604EBD010401C4008802A02D029
:1002600003E0002010BD20F00100002900DA00208A
:10027000184310BD30B480EA010202F0004530F0AE
:10028000004221F0004013D090B1C30DD40DC2F351
:100290001601C0F31600E41A41F4000140F4000214
:1002A0007D34914201D3641C00E04900002C02DA45
:1002B00030BC002070474FF400000023914201D36E
:1002C000891A034340084FEA4101F7D151B19142E5
:1002D00002D14FF0004105E002D24FF0010101E0F0
:1002E0006FF0010103EBC450284430BC00F02FB87C
:1002F00096230022114600F033B820F00040C10DD3
:10030000C0F3160040F400007F2901DA0020704796
:10031000962903DCC1F19601C840704796398840A0
:10032000704730B50B46014600202022012409E029
:1003300021FA02F59D4205D303FA02F5491B04FA9E
:1003400002F52844151EA2F10102F1DC30BD00299E
:10035000A8BF7047401C490008BF20F0010070474B
:1003600010B4B0FA80FC00FA0CF050EA010404BFAB
:1003700010BC704749B1CCF1200421FA04F411FA01
:100380000CF118BF012121430843A3EB0C01CB1D45
:100390004FEA00614FEA102042BF002010BC7047B6
:1003A00000EBC35010440029A4BF10BC7047401C90
:1003B000490008BF20F0010010BC7047064C074DF3
:1003C00006E0E06840F0010394E807009847103425
:1003D000AC42F6D3FFF7B0FEC0130008E0130008EC
:1003E0004E48806940F004004C49886108468069A5
:1003F00040F0080088610846806940F0100088617C
:100400000846806940F0400088614548006820F057
:100410000F00434908600846006840F00800086083
:100420003F480C30006840F001003D490C31086045
:100430003C48006820F470003A49086008460068AB
:1004400040F44010086037480C30006840F020004D
:1004500034490C3108603348001D006820F0F0007A
:100460003049091D08600846006840F03000086007
:100470002C480C30006840F400702A490C310860A8
:100480002948006820F07F40274908600846006836
:1004900040F04C5008600846C06840F04000C8601A
:1004A0000846C06840F08000C8600846406820F0F8
:1004B000FF0048600846406840F033004860084646
:1004C000C06840F48070C8600846C06840F400709E
:1004D000C860164800681649084014490860084674
:1004E0000068144908431149086010480C3000683E
:1004F00040F020000D490C3108600846006840F0CB
:10050000040008600846006840F0080008600846DB
:10051000006840F0100008607047000000100240C2
:1005200000080140000C014000100140001801408B
:10053000FF0000FF0088380010B50AA2002108461D
:1005400000F004FC0AA20021012000F0FFFB0BA236
:100550000021022000F0FAFB0DA20021032000F090
:10056000F5FB10BDC9E8D6C3D1A1CFEE0000000055
:10057000D7EEB4F3D7AACBD900000000CAC7B7F1B1
:10058000C6F4D3C3D7D4B6AFBFD8D6C600000000D8
:1005900020202020202020200000000010B50AA2EA
:1005A0000021084600F0D2FB0AA20021012000F041
:1005B000CDFB0AA20021022000F0C8FB07A2002107
:1005C000032000F0C3FB10BDD6F7CBD9B6C83D2041
:1005D00020200000D7AACBD93D00000020202020F9
:1005E000202020200000000010B50AA200210846AB
:1005F00000F0ACFB09A20021012000F0A7FB09A23A
:100600000021022000F0A2FB09A20021032000F03B
:100610009DFB10BDB2E2CAD4202000002020202083
:10062000202020202020202020202020000000004A
:10063000B7B5BBD82020202020202020C8B7C8CFA5
:100640000000000010B516480078002826DD144888
:10065000007800F0010020B112490968C86B80479A
:100660001CE00F48007800F0020020B10D49096835
:10067000086C804712E00A48007800F0040020B1BE
:1006800008490968486C804708E00548007800F090
:10069000080018B103490968886C804710BD000044
:1006A000EC000020E400002000B50020154908619E
:1006B000C8601420486100208861C861084600684D
:1006C00040F001000860084640680F4908400D49A5
:1006D0004860084600680D4908400A490860084615
:1006E000006820F4802008600846406820F4FE007E
:1006F00048600020886000214FF0006000F058F84A
:1007000000BD0000001002400000FFF8FFFFF6FEF1
:100710002DE9F0410746884614461D46284600F05C
:1007200033F8C5F1040007FA00F60F20284100EA6B
:100730000800064306F00F06E21704EBD2625211DE
:10074000920002F1E022D2F800212146E31704EBE7
:10075000D3635B11A4EB431C012303FA0CF31A438C
:100760002046E31704EBD3635B119B0003F1E02306
:10077000C3F800210348005D40EA0610014908550E
:10078000BDE8F08100E400E00146072323EA01020E
:100790001202054B18684FF6FF031840034B18432D
:1007A0001043014B186070470CED00E00000FA05A3
:1007B000024A0A400243024B1A60704780FFFF1F43
:1007C00008ED00E030B504460025FFF76DFF1F4837
:1007D000006840F480301D49086000BF1B48006875
:1007E000400C0028FAD04FF4806018494860A01EE1
:1007F000C4B20846406840EA844048600846406801
:1008000040F4803048601248006840F032001049DF
:1008100008600E48006840F080700C49086000BF16
:100820000A480068400E0028FAD00848406840F0A6
:1008300002000649486005E004484068C0F38705A7
:1008400005F00305022DF7D130BD00000010024075
:10085000002002400948008800F0010038B1084833
:10086000006808B9012000E000200549086003483D
:10087000008820F001000149088070471004004002
:10088000A481214270B505460C461048C06940F06D
:1008900002000E49C8610E480580001F04800C4804
:1008A0002038008840F001000949203908800848B4
:1008B0002C38008840F0010005492C3908800223BB
:1008C0001D2203210120FFF723FF70BD001002400D
:1008D0002C0400401D49098801F0200111B31B4977
:1008E000091D0988C8B21A49098801F40041C9B92B
:1008F0001749098801F4804161B10A2803D0002119
:10090000134A118020E01249098841F40041104A3D
:10091000118019E00D2806D10D49098841F4804164
:100920000B4A118010E00A490988C1F30D01094AF8
:10093000505407490988491C054A11801146098805
:10094000C72901DD002111807047000000380140F7
:10095000F4000020040200200FB4084B10B504A9D5
:1009600002AA039800F01CF8044602A9002000F037
:10097000C1F8204610BC5DF814FB0000F50A000821
:1009800002E008C8121F08C1002AFAD17047704758
:10099000002001E001C1121F002AFBD170470000B6
:1009A0002DE9FF4F89B09B460446002506E0252827
:1009B0000BD05A460B999047641C6D1C2078002878
:1009C000F5D10DB02846BDE8F08F0027B8460122CA
:1009D000474900E0074314F8013F203B02FA03F0C7
:1009E0000842F7D120782E2819D114F8010F47F0CA
:1009F00004072A280ED06FF02F022078A0F13001D2
:100A000009290CD808EB880102EB410100EB010831
:100A1000641CF2E70A98641C50F8048B0A90207852
:100A20000028CED0642808D0692806D075281ED0AA
:100A30005A460B9990476D1C58E00A994FF00A09E5
:100A400001C90A91002802DA40422D2102E039054D
:100A500004D52B218DF82010012103E0F90704D0E3
:100A60002021F7E78A4608AE0DE00021FAE70A994F
:100A70004FF00A0901C90A91F7E74946FFF751FC0F
:100A8000303106F8011D0028F7D1ADEB060000F16A
:100A90002009780701D44FF00108C84502DDA8EB12
:100AA000090000E000208046002706E008A85A461A
:100AB000C05D0B9990476D1C7F1C5745F6DB04E029
:100AC00030205A460B9990476D1CB8F10001A8F1EF
:100AD0000108F5DC05E016F8010B5A460B99904722
:100AE0006D1CB9F10001A9F10109F4DC641C65E792
:100AF000092801000A68531C0B601070704710B57C
:100B000000F004F8002000F0F5FB10BD10B5302017
:100B100000F0F8FA802000F0F5FA002404E020202C
:100B200000F00AFB601CC4B2402CF8DB10BD0000D2
:100B30004FF0E021096921F004014FF0E02211613A
:100B4000C21700EB5272C2F3C702074B1A70194664
:100B5000097801EB4102C2EBC1114FF6FF7202EAC4
:100B6000C101024A11807047E8000020EA0000201D
:100B700001460D4A12884A434FF0E0235A61002291
:100B80009A6101221A6100BF4FF0E022106900F063
:100B900001021AB100F48032002AF5D000224FF091
:100BA000E0231A619A617047EA00002001460D4A6D
:100BB00012784A434FF0E0235A6100229A610122E1
:100BC0001A6100BF4FF0E022106900F001021AB173
:100BD00000F48032002AF5D000224FF0E0231A61A1
:100BE0009A617047E800002070B5342000F08AFA5E
:100BF000002412E004F18001C8B200F083FA8020E2
:100C000000F080FA002504E0002000F095FA681C4E
:100C1000C5B2102DF8DB601CC4B2202CEADB002426
:100C200012E004F18001C8B200F06CFA882000F0F4
:100C300069FA002504E0002000F07EFA681CC5B2C5
:100C4000102DF8DB601CC4B2202CEADB342000F04D
:100C500059FA70BD2DE9FF410020009001900290EB
:100C6000039034480068007800285CDD3148006853
:100C700000214268084600F069F82E480068407874
:100C8000032801DA012607E02A480068407803219A
:100C900090FBF1F0401CC6B2002434E0701E00EB63
:100CA00040002044C5B2234800680078A84222DDF5
:100CB0006A1C21A16846FFF74FFE611CC8B26A4654
:100CC000002100F043F81B490968083151F825203C
:100CD000611CC8B2012100F039F816480068006BA9
:100CE00050F82500007860B1611CC8B213A207213A
:100CF00000F02CF805E0611CC8B211A2002100F040
:100D000025F8601CC4B2032CC8DB0A480068407890
:100D1000032190FBF1F201FB1200801CC7B23846A0
:100D200000F0E8FA03E003490968886B8047BDE8F2
:100D3000FF810000E4000020256400001000000096
:100D400020202020202020200000000070B5054633
:100D50000E461446082101FB0561064A505C00F06E
:100D6000D1F903E014F8010B00F0E6F9207800282F
:100D7000F8D170BDF700002010B500200F490860C1
:100D80000F49C1F8A4016420FFF7F2FE01200B49CE
:100D9000091D08601420FFF7EBFE302000F0B2F9C7
:100DA0000C2000F0AFF9012000F0ACF9022000F0B7
:100DB000A9F9802000F0A6F910BD0000A001224290
:100DC0000000224210B53E490978880000F040F941
:100DD0003B4908633B48096B08603B483849096B4D
:100DE00048603A483649096B8860002034494863B6
:100DF0003748C863374808643748486437488864C8
:100E000031490978880000F023F92F4908633448F4
:100E1000096B086033482C49096B486028482A4907
:100E200048632B48C8632B4808642F4848642B4804
:100E3000886426490978880000F00AF92349086384
:100E4000002406E027482149096B41F82400601C72
:100E5000C4B21E480078A042F4DC19481B4948631C
:100E60001B48C8631B4808641F4848641B488864C3
:100E70001E4814498863124848631748C8630864C9
:100E800019484864144888641948154988630E480D
:100E900048631148C8630864134848640E4888646E
:100EA000144810498863094848630B48C8630864BC
:100EB0000D4848640848886401480F49086010BD1F
:100EC00000000020200100204C000020980000209D
:100ED000690F0008210F0008FD0E0008410F0008EF
:100EE0006C010020B8010020010F00089D050008DA
:100EF00039050008E9050008E400002070470000FB
:100F000010B506480068406B30B1FFF7F8FD0348A4
:100F10000068406B0149086010BD0000E40000203B
:100F2000064800684078002806DD044800684078DC
:100F3000401E02490968487070470000E400002024
:100F400010B5FFF7DCFD07480068006B054909682C
:100F5000497850F82100034908600020096848706A
:100F600010BD0000E40000200848006841780748F0
:100F700000680078401E814206DA04480068407824
:100F8000401C02490968487070470000E4000020D6
:100F900013490968134AD2F80C210AB9012200E06A
:100FA000002201EB4201104A12680AB9012200E056
:100FB000002201EB82010C4A083212680AB90122B0
:100FC00000E0002201EBC201C943C8B20749097819
:100FD00041400140064A1170044908707047000002
:100FE000000121420000234208012342ED000020BD
:100FF000EC00002000240920FFF7E4FB4820FFF765
:1010000097FDFFF7EDF941F61F4141F28730FFF7F9
:1010100039FC4FF4E131482000F0A8F8FFF7ACFEAE
:101020006420FFF7A5FDFFF7CDFE10E0FFF7B0FF4E
:10103000FFF708FB0A2C01DD002401E0601CC4B2AC
:101040000A2C01D1FFF706FE0A20FFF791FDEDE71C
:10105000F0B50B30154D20F007010024144A0FE0C5
:1010600003688B420BD38B4205D95E1A431847683D
:10107000C3E9006700E04368136002C004E0021D9A
:1010800010680028ECD12046002802D1286808B159
:101090000020F0BD064A07481060074A121A22F0E5
:1010A0000702C0E9002401202860D7E71C010020C6
:1010B00018010020D4020020D002002070B50446A0
:1010C00000251AE000200E49086004F0800018B1E5
:1010D0000120091D086003E000200949091D08607E
:1010E0000220FFF763FD0120054908606006040E39
:1010F0000220FFF75BFD681CC5B2082DE2DB70BD66
:101100009801224210B50446012009490860F820E0
:10111000FFF7D4FF04F0F000FFF7D0FF2107080E1F
:10112000FFF7CCFF00200349C1F8A00110BD00006B
:10113000A00122420000224210B5044601200949C4
:101140000860FA20FFF7BAFF04F0F000FFF7B6FFDF
:101150002107080EFFF7B2FF00200349C1F8A001E4
:1011600010BD0000A0012242000022422DE9F05FE4
:1011700005460E463001FFF7BBF881462E4905FBB8
:1011800001F0FFF7B5F882464946FFF773F80746C6
:101190003846FFF7B2F884B22046FFF7A9F8834635
:1011A0003946FFF732F882464FF08341FFF730F8B7
:1011B0008146FFF7A2F880464FF6FF7000EA04145C
:1011C00004EB080084B21D48806940F004001B490C
:1011D00088610846806940F480408861184800684A
:1011E00020F47F60164908600846006840F40B60F0
:1011F00008601248C06840F480401049C860084642
:10120000C06820F48040C8600E480480001D00883B
:1012100042F20C0108430B49091D0880084600886A
:1012200040F0200008800223252203210846FFF712
:101230006FFABDE8F09F000040420F00001002402E
:1012400004080140083801402DE9F05F05460F46CB
:10125000904699460A98012801D1FFF7C5FC8026DF
:1012600015B9802510240DE0012D02D18025202400
:1012700008E0022D02D18825102403E0032D01D1BE
:1012800088252024E81900F0FF0B28E0C24634200E
:10129000FFF738FF3046FFF735FF5846FFF732FFBC
:1012A0003020FFF72FFF13E0102C03DD0020FFF7A5
:1012B00043FF09E0B9F1010F03D1FF20FFF73CFF25
:1012C00002E00020FFF738FFAAF1010000F0FF0A5A
:1012D000BAF1000FE8D1701CC6B2601EC4B2002C77
:1012E000D4D13620FFF70EFF3020FFF70BFFBDE80B
:1012F000F09F000038B504467CB91048007884425D
:101300001AD0012000231022194600900B480078C3
:10131000FFF79AFF094804700EE0084800788442FD
:101320000AD00120611E0090C8B2012310220021C2
:10133000FFF78AFF0148047038BD0000F600002066
:10134000B2CBB5A531000000B2CBB5A5320000008C
:10135000B2CECAFD32000000B2CBB5A5330000000A
:10136000B2CBB5A534000000B2CBB5A53500000066
:10137000B2CBB5A536000000B2CBB5A53700000052
:10138000B2CBB5A53800000020202020D6F7B2CB84
:10139000B5A50000CFD4CABE000000002020202048
:1013A000C9E8D6C30000000020202020B8FCB6E029
:1013B00000000000D4CBD0D0B2CECAFD00000000A7
:1013C000E013000800000020200100008009000850
:1013D0000015000820010020B00500009009000859
:1013E000030000008813000894130008A0130008ED
:1013F000AC13000800000000000000000000000026
:1014000000000000000000000000000000000000DC
:1014100000000000000000000000000000000000CC
:1014200000000000000000000000000002000000BA
:101430009C130008B41300085013000800000000BB
:10144000000000000000000000000000000000009C
:10145000000000000000000000000000000000008C
:10146000000000000000000000000000000000007C
:10147000000000000000000008000000A8130008A1
:1014800040130008481300085813000860130008B0
:101490006813000870130008781300088013000810
:1014A000000000000000000000000000000000003C
:1014B000000000000000000000000000000000002C
:1014C000000000000000000000000000000000001C
:1014D0000000000000000080818283848586879060
:1014E0009192939495969788898A8B8C8D8E8F98FC
:1014F000999A9B9C9D9E9F000000000000000000A8
:0400000508000131BD
:00000001FF
