:020000040800F2
:10000000D006002045010008490100084B01000806
:100010004D0100084F0100085101000800000000D8
:100020000000000000000000000000005301000874
:1000300055010008000000005701000859010008A0
:100040005B0100085B0100085B0100085B01000820
:100050005B0100085B0100085B0100085B01000810
:100060005B0100085B0100085B0100085B01000800
:100070005B0100085B0100085B0100085B010008F0
:100080005B0100085B0100085B0100085B010008E0
:100090005B0100085B0100085B0100085B010008D0
:1000A0005B0100085B0100085B0100085B010008C0
:1000B0005B0100085B0100085B0100085B010008B0
:1000C0005B0100085B0100085B0100085B010008A0
:1000D0005B010008550800085B0100085B0100088F
:1000E0005B0100085B0100085B0100085B01000880
:1000F0005B0100085B0100085B0100085B01000870
:100100005B0100085B0100085B0100085B0100085F
:100110005B0100085B0100085B0100085B0100084F
:100120005B0100085B0100085B0100085B0100083F
:10013000DFF80CD000F042F900480047BD0F00087E
:10014000D006002005480047FEE7FEE7FEE7FEE791
:10015000FEE7FEE7FEE7FEE7FEE7FEE73101000807
:10016000F0B480EA0102D40F4200B2EB410F02D298
:100170000246084611464A0042D0C30DDDB2C1F323
:10018000C752AD1A202D35DAC1F3160141F4000231
:1001900004B15242C5F1200602FA06F12A41104488
:1001A000B3EBD05F23D0C4B1012DA0EBC35009DC69
:1001B000F0BC4FF0004202EAC352DBB200F500008F
:1001C00000F0CEB8400000F1807000EBC350A0F109
:1001D000807040EAD170490009E0490841EAC071E5
:1001E000A0EBC35000F50000400800EBC350F0BC8A
:1001F00000F0ADB86142012202EB4101001BF6E7BD
:10020000F0BC704781F00041AAE780F00040A7E70A
:1002100080EA010210B502F00043400022D04A00FB
:100220001FD0010E01EB1261C0F35600C2F356025B
:1002300040F4000042F40002A0FB022000047F39D9
:10024000140400D0401C50EA124001D44000491E62
:10025000C2B20C0604EBD010401C4008802A02D029
:1002600003E0002010BD20F00100002900DA00208A
:10027000184310BD30B480EA010202F0004530F0AE
:10028000004221F0004013D090B1C30DD40DC2F351
:100290001601C0F31600E41A41F4000140F4000214
:1002A0007D34914201D3641C00E04900002C02DA45
:1002B00030BC002070474FF400000023914201D36E
:1002C000891A034340084FEA4101F7D151B19142E5
:1002D00002D14FF0004105E002D24FF0010101E0F0
:1002E0006FF0010103EBC450284430BC00F02FB87C
:1002F00096230022114600F033B820F00040C10DD3
:10030000C0F3160040F400007F2901DA0020704796
:10031000962903DCC1F19601C840704796398840A0
:10032000704730B50B46014600202022012409E029
:1003300021FA02F59D4205D303FA02F5491B04FA9E
:1003400002F52844151EA2F10102F1DC30BD00299E
:10035000A8BF7047401C490008BF20F0010070474B
:1003600010B4B0FA80FC00FA0CF050EA010404BFAB
:1003700010BC704749B1CCF1200421FA04F411FA01
:100380000CF118BF012121430843A3EB0C01CB1D45
:100390004FEA00614FEA102042BF002010BC7047B6
:1003A00000EBC35010440029A4BF10BC7047401C90
:1003B000490008BF20F0010010BC7047064C074DF3
:1003C00006E0E06840F0010394E807009847103425
:1003D000AC42F6D3FFF7B0FE90130008B01300084C
:1003E0004E48806940F004004C49886108468069A5
:1003F00040F0080088610846806940F0100088617C
:100400000846806940F0400088614548006820F057
:100410000F00434908600846006840F00800086083
:100420003F480C30006840F001003D490C31086045
:100430003C48006820F470003A49086008460068AB
:1004400040F44010086037480C30006840F020004D
:1004500034490C3108603348001D006820F0F0007A
:100460003049091D08600846006840F03000086007
:100470002C480C30006840F400702A490C310860A8
:100480002948006820F07F40274908600846006836
:1004900040F04C5008600846C06840F04000C8601A
:1004A0000846C06840F08000C8600846406820F0F8
:1004B000FF0048600846406840F033004860084646
:1004C000C06840F48070C8600846C06840F400709E
:1004D000C860164800681649084014490860084674
:1004E0000068144908431149086010480C3000683E
:1004F00040F020000D490C3108600846006840F0CB
:10050000040008600846006840F0080008600846DB
:10051000006840F0100008607047000000100240C2
:1005200000080140000C014000100140001801408B
:10053000FF0000FF0088380010B50AA2002108461D
:1005400000F0DAFB0AA20021012000F0D5FB0BA28B
:100550000021022000F0D0FB0DA20021032000F0BA
:10056000CBFB10BDC9E8D6C3D1A1CFEE000000007F
:10057000D7EEB4F3D7AACBD900000000CAC7B7F1B1
:10058000C6F4D3C3D7D4B6AFBFD8D6C600000000D8
:1005900020202020202020200000000010B50AA2EA
:1005A0000021084600F0A8FB0AA20021012000F06B
:1005B000A3FB0AA20021022000F09EFB07A200215B
:1005C000032000F099FB10BDD6F7CBD9B6C83D206B
:1005D00020200000D7AACBD93D00000020202020F9
:1005E000202020200000000010B50AA200210846AB
:1005F00000F082FB09A20021012000F07DFB09A28E
:100600000021022000F078FB09A20021032000F065
:1006100073FB10BDB2E2CAD42020000020202020AD
:10062000202020202020202020202020000000004A
:10063000B7B5BBD82020202020202020C8B7C8CFA5
:100640000000000010B516480078002826DD144888
:10065000007800F0010020B112490968C86B80479A
:100660001CE00F48007800F0020020B10D49096835
:10067000086C804712E00A48007800F0040020B1BE
:1006800008490968486C804708E00548007800F090
:10069000080018B103490968886C804710BD000044
:1006A000100100200C01002000B500201549086150
:1006B000C8601420486100208861C861084600684D
:1006C00040F001000860084640680F4908400D49A5
:1006D0004860084600680D4908400A490860084615
:1006E000006820F4802008600846406820F4FE007E
:1006F00048600020886000214FF0006000F058F84A
:1007000000BD0000001002400000FFF8FFFFF6FEF1
:100710002DE9F0410746884614461D46284600F05C
:1007200033F8C5F1040007FA00F60F20284100EA6B
:100730000800064306F00F06E21704EBD2625211DE
:10074000920002F1E022D2F800212146E31704EBE7
:10075000D3635B11A4EB431C012303FA0CF31A438C
:100760002046E31704EBD3635B119B0003F1E02306
:10077000C3F800210348005D40EA0610014908550E
:10078000BDE8F08100E400E00146072323EA01020E
:100790001202054B18684FF6FF031840034B18432D
:1007A0001043014B186070470CED00E00000FA05A3
:1007B000024A0A400243024B1A60704780FFFF1F43
:1007C00008ED00E030B504460025FFF76DFF1F4837
:1007D000006840F480301D49086000BF1B48006875
:1007E000400C0028FAD04FF4806018494860A01EE1
:1007F000C4B20846406840EA844048600846406801
:1008000040F4803048601248006840F032001049DF
:1008100008600E48006840F080700C49086000BF16
:100820000A480068400E0028FAD00848406840F0A6
:1008300002000649486005E004484068C0F38705A7
:1008400005F00305022DF7D130BD00000010024075
:10085000002002401D49098801F0200111B31B4905
:10086000091D0988C8B21A49098801F40041C9B9AB
:100870001749098801F4804161B10A2803D0002199
:10088000134A118020E01249098841F40041104ABE
:10089000118019E00D2806D10D49098841F48041E5
:1008A0000B4A118010E00A490988C1F30D01094A79
:1008B000505407490988491C054A11801146098886
:1008C000C72901DD00211180704700000038014078
:1008D00018010020080200200FB4054B10B503A931
:1008E000044A029800F02CF810BC5DF814FB0000DC
:1008F000250D0008140100200FB4084B10B504A901
:1009000002AA039800F01CF8044602A9002000F097
:10091000C1F8204610BC5DF814FB0000950A0008E1
:1009200002E008C8121F08C1002AFAD170477047B8
:10093000002001E001C1121F002AFBD17047000016
:100940002DE9FF4F89B09B460446002506E0252887
:100950000BD05A460B999047641C6D1C20780028D8
:10096000F5D10DB02846BDE8F08F0027B84601222A
:10097000474900E0074314F8013F203B02FA03F027
:100980000842F7D120782E2819D114F8010F47F02A
:1009900004072A280ED06FF02F022078A0F1300132
:1009A00009290CD808EB880102EB410100EB010892
:1009B000641CF2E70A98641C50F8048B0A902078B3
:1009C0000028CED0642808D0692806D075281ED00B
:1009D0005A460B9990476D1C58E00A994FF00A0946
:1009E00001C90A91002802DA40422D2102E03905AE
:1009F00004D52B218DF82010012103E0F90704D044
:100A00002021F7E78A4608AE0DE00021FAE70A99AF
:100A10004FF00A0901C90A91F7E74946FFF781FC3F
:100A2000303106F8011D0028F7D1ADEB060000F1CA
:100A30002009780701D44FF00108C84502DDA8EB72
:100A4000090000E000208046002706E008A85A467A
:100A5000C05D0B9990476D1C7F1C5745F6DB04E089
:100A600030205A460B9990476D1CB8F10001A8F14F
:100A70000108F5DC05E016F8010B5A460B99904782
:100A80006D1CB9F10001A9F10109F4DC641C65E7F2
:100A9000092801000A68531C0B601070704710B5DC
:100AA00000F004F8002000F00DFC10BD10B530205F
:100AB00000F010FB802000F00DFB002404E020205B
:100AC00000F022FB601CC4B2402CF8DB10BD00001B
:100AD0004FF0E021096921F004014FF0E02211619B
:100AE000C21700EB5272C2F3C702074B1A701946C5
:100AF000097801EB4102C2EBC1114FF6FF7202EA25
:100B0000C101024A1180704700000020020000204D
:100B100001460D4A12884A434FF0E0235A610022F1
:100B20009A6101221A6100BF4FF0E022106900F0C3
:100B300001021AB100F48032002AF5D000224FF0F1
:100B4000E0231A619A6170470200002001460D4AB5
:100B500012784A434FF0E0235A6100229A61012241
:100B60001A6100BF4FF0E022106900F001021AB1D3
:100B700000F48032002AF5D000224FF0E0231A6101
:100B80009A6170470000002070B5342000F0A2FA8E
:100B9000002412E004F18001C8B200F09BFA80202A
:100BA00000F098FA002504E0002000F0ADFA681C7F
:100BB000C5B2102DF8DB601CC4B2202CEADB002487
:100BC00012E004F18001C8B200F084FA882000F03D
:100BD00081FA002504E0002000F096FA681CC5B2F6
:100BE000102DF8DB601CC4B2202CEADB342000F0AE
:100BF00071FA70BD2DE9FF41002000900190029034
:100C00000390374800680078002862DD34480068A7
:100C100000214268084600F06FF8314800684078CB
:100C2000032801DA012607E02D48006840780321F7
:100C300090FBF1F0401CC6B229480068417829A019
:100C4000FFF74AFE002434E0701E00EB4000204411
:100C5000C5B2234800680078A84222DD6A1C21A1A1
:100C60006846FFF749FE611CC8B26A46002100F0E1
:100C700043F81B490968083151F82520611CC8B2A6
:100C8000012100F039F816480068006B50F8250083
:100C9000007860B1611CC8B213A2072100F02CF8E3
:100CA00005E0611CC8B211A2002100F025F8601C0B
:100CB000C4B2032CC8DB0A4800684078032190FBCB
:100CC000F1F201FB1200801CC7B2384600F0FAFABC
:100CD00003E003490968886B8047BDE8FF81000095
:100CE0000C010020256400001000000020202020BE
:100CF000202020200000000070B505460E46144656
:100D0000082101FB0561064A505C00F0E3F903E0AD
:100D100014F8010B00F0F8F920780028F8D170BD24
:100D20000500002000BF054A128802F04002002A98
:100D3000F9D0C2B2014B1B1D1A8070470038014028
:100D400010B500200F4908600F49C1F8A4016420C4
:100D5000FFF7DEFE01200B49091D08601420FFF794
:100D6000D7FE302000F0B6F90C2000F0B3F90120D6
:100D700000F0B0F9022000F0ADF9802000F0AAF9EF
:100D800010BD0000A00122420000224210B53E49E1
:100D90000978880000F044F93B4908633B48096B37
:100DA00008603B483849096B48603A483649096B46
:100DB00088600020344948633748C863374808646E
:100DC000374848643748886431490978880000F01A
:100DD00027F92F4908633448096B086033482C49C8
:100DE000096B486028482A4948632B48C8632B4848
:100DF00008642F4848642B4888642649097888008D
:100E000000F00EF923490863002406E02748214931
:100E1000096B41F82400601CC4B21E480078A0424F
:100E2000F4DC19481B4948631B48C8631B48086425
:100E30001F4848641B4888641E4814498863124848
:100E400048631748C86308641948486414488864AC
:100E50001948154988630E4848631148C8630864F7
:100E6000134848640E488864144810498863094848
:100E700048630B48C86308640D48486408488864A0
:100E800001480F49086010BD2800002024010020FF
:100E900074000020C0000020310F0008E90E000897
:100EA000C50E0008090F000870010020BC010020D9
:100EB000C90E00089D05000839050008E90500086D
:100EC0000C0100207047000010B506480068406B18
:100ED00030B1FFF7E4FD03480068406B014908604A
:100EE00010BD00000C010020064800684078002872
:100EF00006DD044800684078401E024909684870D1
:100F0000704700000C01002010B5FFF7C8FD07482E
:100F10000068006B05490968497850F821000349C9
:100F2000086000200968487010BD00000C01002016
:100F3000084800684178074800680078401E8142F0
:100F400006DA044800684078401C02490968487085
:100F5000704700000C01002013490968134AD2F8B9
:100F60000C210AB9012200E0002201EB4201104AE3
:100F700012680AB9012200E0002201EB82010C4A4A
:100F8000083212680AB9012200E0002201EBC20116
:100F9000C943C8B20749097841400140064A117067
:100FA00004490870704700000001214200002342FC
:100FB0000801234211010020100100200024092013
:100FC000FFF700FC4820FFF783FDFFF709FA4FF415
:100FD000E131482000F0B2F8FFF7B2FE6420FFF7DD
:100FE00097FDFFF7D3FE18E0FFF7B6FFFFF72AFBE8
:100FF0000A2C01DD002401E0601CC4B20A2C09D1D6
:10100000FFF7F8FD0548006808B9012000E000205E
:10101000024908600A20FFF77BFDE5E7A481214231
:10102000F0B50B30154D20F007010024144A0FE0F5
:1010300003688B420BD38B4205D95E1A431847686D
:10104000C3E9006700E04368136002C004E0021DCA
:1010500010680028ECD12046002802D1286808B189
:101060000020F0BD064A07481060074A121A22F015
:101070000702C0E9002401202860D7E720010020F2
:101080001C010020D4020020D002002070B50446CC
:1010900000251AE000200E49086004F0800018B115
:1010A0000120091D086003E000200949091D0860AE
:1010B0000220FFF74BFD0120054908606006040E81
:1010C0000220FFF743FD681CC5B2082DE2DB70BDAE
:1010D0009801224210B50446012009490860F82011
:1010E000FFF7D4FF04F0F000FFF7D0FF2107080E50
:1010F000FFF7CCFF00200349C1F8A00110BD00009C
:10110000A00122420000224210B5044601200949F4
:101110000860FA20FFF7BAFF04F0F000FFF7B6FF0F
:101120002107080EFFF7B2FF00200349C1F8A00114
:1011300010BD0000A0012242000022422DE9F05F14
:1011400005460E463001FFF7D3F881462E4905FBD0
:1011500001F0FFF7CDF882464946FFF78BF80746C6
:101160003846FFF7CAF884B22046FFF7C1F8834635
:101170003946FFF74AF882464FF08341FFF748F8B7
:101180008146FFF7BAF880464FF6FF7000EA041474
:1011900004EB080084B21D48806940F004001B493C
:1011A00088610846806940F480408861184800687A
:1011B00020F47F60164908600846006840F40B6020
:1011C00008601248C06840F480401049C860084672
:1011D000C06820F48040C8600E480480001D00886C
:1011E00042F20C0108430B49091D0880084600889B
:1011F00040F0200008800223252203210846FFF743
:1012000087FABDE8F09F000040420F000010024046
:1012100004080140083801402DE9F05F05460F46FB
:10122000904699460A98012801D1FFF7ADFC802627
:1012300015B9802510240DE0012D02D18025202430
:1012400008E0022D02D18825102403E0032D01D1EE
:1012500088252024E81900F0FF0B28E0C24634203E
:10126000FFF738FF3046FFF735FF5846FFF732FFEC
:101270003020FFF72FFF13E0102C03DD0020FFF7D5
:1012800043FF09E0B9F1010F03D1FF20FFF73CFF55
:1012900002E00020FFF738FFAAF1010000F0FF0A8A
:1012A000BAF1000FE8D1701CC6B2601EC4B2002CA7
:1012B000D4D13620FFF70EFF3020FFF70BFFBDE83B
:1012C000F09F000038B504467CB91048007884428D
:1012D0001AD0012000231022194600900B480078F4
:1012E000FFF79AFF094804700EE00848007884422E
:1012F0000AD00120611E0090C8B2012310220021F3
:10130000FFF78AFF0148047038BD00000400002088
:10131000B2CBB5A531000000B2CBB5A532000000BC
:10132000B2CECAFD32000000B2CBB5A5330000003A
:10133000B2CBB5A534000000B2CBB5A53500000096
:10134000B2CBB5A536000000B2CBB5A53700000082
:10135000B2CBB5A53800000020202020D6F7B2CBB4
:10136000B5A50000CFD4CABE000000002020202078
:10137000C9E8D6C30000000020202020B8FCB6E059
:1013800000000000D4CBD0D0B2CECAFD00000000D7
:10139000B01300080000002024010000200900080C
:1013A000D414000824010020AC0500003009000816
:1013B000000000000080818283848586879091925E
:1013C000939495969788898A8B8C8D8E8F98999A0D
:1013D0009B9C9D9E9F000000030000005813000886
:1013E00064130008701300087C130008000000005C
:1013F00000000000000000000000000000000000ED
:1014000000000000000000000000000000000000DC
:1014100000000000000000000000000000000000CC
:1014200000000000020000006C1300088413000894
:101430002013000800000000000000000000000071
:10144000000000000000000000000000000000009C
:10145000000000000000000000000000000000008C
:10146000000000000000000000000000000000007C
:101470000800000078130008101300081813000873
:101480002813000830130008381300084013000820
:10149000481300085013000800000000000000007E
:1014A000000000000000000000000000000000003C
:1014B000000000000000000000000000000000002C
:1014C000000000000000000000000000000000001C
:0414D0000000000018
:0400000508000131BD
:00000001FF
