:020000040800F2
:100000003808002045010008490100084B0100089C
:100010004D0100084F0100085101000800000000D8
:100020000000000000000000000000005301000874
:1000300055010008000000005701000859010008A0
:100040005B0100085B0100085B0100085B01000820
:100050005B0100085B0100085B0100085B01000810
:100060005B0100085B0100085B0100085B01000800
:100070005B0100085B0100085B0100085B010008F0
:100080005B0100085B0100085B0100085B010008E0
:100090005B0100085B0100085B0100085B010008D0
:1000A0005B0100085B0100085B0100085B010008C0
:1000B000F90A0008810B0008110C00085B01000818
:1000C0005B0100085B0100085B0100085B010008A0
:1000D0005B010008D50C00085B0100085B0100080B
:1000E0005B0100085B0100085B0100085B01000880
:1000F0005B0100085B0100085B0100085B01000870
:100100005B0100085B0100085B0100085B0100085F
:100110005B0100085B0100085B0100085B0100084F
:100120005B0100085B0100085B0100085B0100083F
:10013000DFF80CD000F042F900480047E514000851
:100140003808002005480047FEE7FEE7FEE7FEE727
:10015000FEE7FEE7FEE7FEE7FEE7FEE73101000807
:10016000F0B480EA0102D40F4200B2EB410F02D298
:100170000246084611464A0042D0C30DDDB2C1F323
:10018000C752AD1A202D35DAC1F3160141F4000231
:1001900004B15242C5F1200602FA06F12A41104488
:1001A000B3EBD05F23D0C4B1012DA0EBC35009DC69
:1001B000F0BC4FF0004202EAC352DBB200F500008F
:1001C00000F0CEB8400000F1807000EBC350A0F109
:1001D000807040EAD170490009E0490841EAC071E5
:1001E000A0EBC35000F50000400800EBC350F0BC8A
:1001F00000F0ADB86142012202EB4101001BF6E7BD
:10020000F0BC704781F00041AAE780F00040A7E70A
:1002100080EA010210B502F00043400022D04A00FB
:100220001FD0010E01EB1261C0F35600C2F356025B
:1002300040F4000042F40002A0FB022000047F39D9
:10024000140400D0401C50EA124001D44000491E62
:10025000C2B20C0604EBD010401C4008802A02D029
:1002600003E0002010BD20F00100002900DA00208A
:10027000184310BD30B480EA010202F0004530F0AE
:10028000004221F0004013D090B1C30DD40DC2F351
:100290001601C0F31600E41A41F4000140F4000214
:1002A0007D34914201D3641C00E04900002C02DA45
:1002B00030BC002070474FF400000023914201D36E
:1002C000891A034340084FEA4101F7D151B19142E5
:1002D00002D14FF0004105E002D24FF0010101E0F0
:1002E0006FF0010103EBC450284430BC00F02FB87C
:1002F00096230022114600F033B820F00040C10DD3
:10030000C0F3160040F400007F2901DA0020704796
:10031000962903DCC1F19601C840704796398840A0
:10032000704730B50B46014600202022012409E029
:1003300021FA02F59D4205D303FA02F5491B04FA9E
:1003400002F52844151EA2F10102F1DC30BD00299E
:10035000A8BF7047401C490008BF20F0010070474B
:1003600010B4B0FA80FC00FA0CF050EA010404BFAB
:1003700010BC704749B1CCF1200421FA04F411FA01
:100380000CF118BF012121430843A3EB0C01CB1D45
:100390004FEA00614FEA102042BF002010BC7047B6
:1003A00000EBC35010440029A4BF10BC7047401C90
:1003B000490008BF20F0010010BC7047064C074DF3
:1003C00006E0E06840F0010394E807009847103425
:1003D000AC42F6D3FFF7B0FE041C0008241C000852
:1003E00070B58C1810F8015B15F0070301D110F8F7
:1003F000013B2A1106D110F8012B03E010F8016B24
:1004000001F8016B5B1EF9D12B0705D40023521EA6
:100410000DD401F8013BFAE710F8013BCB1A921C0E
:1004200003E013F8015B01F8015B521EF9D5A1420C
:10043000D8D3002070BD00006648806940F00400F9
:10044000644988610846806940F008008861084670
:10045000806940F0100088610846806940F04000E3
:1004600088615D4800684FF60F7108405A4908607E
:10047000084600685949084357490860081D006844
:100480004FF20F0188435449091D0860084600686F
:1004900043F2030108435049091D08604E480C30DF
:1004A000006840F010004C490C31086008460068B4
:1004B00040F0200008600846006840F040000860F6
:1004C0000846006840F0800008600846006840F474
:1004D000807008600846006840F40070086040487A
:1004E000006820F470003E4908600846006840F447
:1004F000401008603A480C30006840F0200038494D
:100500000C3108603648001D006820F0F0003449C6
:10051000091D08600846006840F030000860304857
:100520000C30006840F400702D490C3108602D48F3
:10053000006820F07F402B4908600846006840F0C2
:100540004C5008600846C06840F04000C86008464B
:10055000C06840F08000C8600846406820F0FF0096
:1005600048600846406840F0330048600846C0686C
:1005700040F48070C8600846C06840F40070C860ED
:10058000194800681949084017490860084600687A
:10059000174908431449086013480C30006840F0BC
:1005A000020011490C3108600846006840F0040060
:1005B00008600846006840F00800086008460068C7
:1005C00040F0100008600846006840F02000086015
:1005D000704700000010024000080140B0003333B3
:1005E000000C014000100140001801400F0000FF06
:1005F0008088380010B50DA20021084600F0D2FD19
:100600000FA20021012000F0CDFD0CA2002102204C
:1006100000F0C8FD0CA20021032000F0C3FD012062
:100620000E49887300F05FFA10BD0000CEA2D0CD55
:10063000B2BDBDF8B5E7BBFAB2E2CAD40000000013
:10064000CDA3D6B900000000B7B5BBD8202020202C
:1006500020202020C8B7C8CF00000000940100204F
:1006600010B50AA20021084600F09CFD0AA2002154
:10067000012000F097FD0BA20021022000F092FD66
:100680000DA20021032000F08DFD10BDC9E8D6C3E6
:10069000D1A1CFEE00000000D7EEB4F3D7AACBD99A
:1006A00000000000CAC7B7F1C6F4D3C3D7D4B6AFB1
:1006B000BFD8D6C600000000202020202020202007
:1006C0000000000010B51CA20021084600F06AFDE1
:1006D0001D4882781DA1204800F03EFB1E4A0021E3
:1006E000032000F05FFD184882891CA11A4800F021
:1006F00033FB194A0021022000F054FD12481BA1CF
:100700008268154800F028FB134A0021012000F000
:1007100049FD0D48807B012804D118A10E4800F046
:100720001BFB03E017A10C4800F016FB0A4A062148
:10073000032000F037FD10BD20202020CAB5CAB12B
:10074000CFD4CABE0000000074010020B7BDCFF2B4
:10075000A3BA25640000000044030020D7AACBD927
:10076000A3BA25642020202000000000B2BDCAFDED
:10077000A3BA25642020202020200000D4CBD0D094
:1007800000000000CDA3D6B90000000010B50EA2F5
:100790000021084600F006FD00F01AFD044622463E
:1007A0000BA10E4800F0D8FA0C4A0021012000F0FD
:1007B000F9FC0BA20021022000F0F4FC0BA20021A6
:1007C000032000F0EFFC10BDB2E2CAD420200000EC
:1007D0002564202020202020202000004403002029
:1007E000202020202020202000000000B7B5BBD80A
:1007F0002020202020202020C8B7C8CF00000000E3
:1008000010B50A49896941F00801084CA1610849FD
:10081000096821F0FF01064C21602146096841F07A
:10082000830121600021034C216010BD00100240B3
:10083000000C01408081214270B50024002500BFDA
:1008400008E000F011F805444FF4FA7000F0DAFB0C
:10085000601CC4B20A2CF4DB4FF47A7095FBF0F202
:10086000104600F02DF870BD00200022124B1A60D7
:1008700000BF114A7C3A1268002AFAD100210EE02A
:1008800001220D4B1A60400000220C4BC3F880215E
:10089000094A7C3A126802B1401C4A1CD1B218299C
:1008A000EEDB0122044B1A6080F400000022034BAF
:1008B000C3F88021704700008081214200802142DE
:1008C0000149086070470000A401002010B51648D7
:1008D0000078002826DD1448007800F0010020B1DF
:1008E00012490968086C80471CE00F48007800F046
:1008F000020020B10D490968486C804712E00A489F
:10090000007800F0040020B108490968886C80472D
:1009100008E00548007800F0080018B103490968AC
:10092000C86C804710BD00004A0100204001002033
:1009300000B5002015490861C860142048610020F6
:100940008861C8610846006840F0010008600846F8
:1009500040680F4908400D494860084600680D4945
:1009600008400A4908600846006820F480200860B2
:100970000846406820F4FE0048600020886000219E
:100980004FF0006000F058F800BD00000010024079
:100990000000FFF8FFFFF6FE2DE9F041074688460C
:1009A00014461D46284600F033F8C5F1040007FA46
:1009B00000F60F20284100EA0800064306F00F0663
:1009C000E21704EBD2625211920002F1E022D2F857
:1009D00000212146E31704EBD3635B11A4EB431C16
:1009E000012303FA0CF31A432046E31704EBD36305
:1009F0005B119B0003F1E023C3F800210348005D75
:100A000040EA061001490855BDE8F08100E400E025
:100A10000146072323EA01021202054B18684FF62C
:100A2000FF031840034B18431043014B18607047F5
:100A30000CED00E00000FA05024A0A400243024BB6
:100A40001A60704780FFFF1F08ED00E030B50446D4
:100A50000025FFF76DFF1F48006840F480301D49F6
:100A6000086000BF1B480068400C0028FAD04FF413
:100A7000806018494860A01EC4B20846406840EA39
:100A8000844048600846406840F48030486012481E
:100A9000006840F03200104908600E48006840F0DD
:100AA00080700C49086000BF0A480068400E0028AA
:100AB000FAD00848406840F002000649486005E066
:100AC00004484068C0F3870505F00305022DF7D1FF
:100AD00030BD00000010024000200240411E4FF0D7
:100AE0008042118570474FF08040008840F001003F
:100AF0004FF080410880704710B54FF08040008A69
:100B000000F0010008B100F0D1FD4FF08040008AF4
:100B100020F001004FF08041088210BD10B50B4855
:100B2000C06940F001000949C86140F2F31089042E
:100B300088850846808940F00100888102231C22B4
:100B400005210120FFF728FF10BD00000010024022
:100B5000411E014A11807047280400400248008865
:100B600000200149088070470004004003480088C5
:100B700040F0010001490880704700000004004077
:100B800010B50748008800F0010008B100F05AFDD8
:100B90000348008820F001000149088010BD0000D2
:100BA0001004004010B50C48C06940F002000A492A
:100BB000C86104200949088008482038008840F0AE
:100BC000010006492039088002231D22032101204B
:100BD000FFF7E2FE10BD0000001002402C040040B0
:100BE000411E014A118070472808004002480088D1
:100BF0000020014908807047000800400348008831
:100C000040F00100014908807047000000080040E2
:100C100010B50748008800F0010008B100F084FD1D
:100C20000348008820F001000149088010BD000041
:100C30001008004010B50C48C06940F004000A4993
:100C4000C86104200949088008482038008840F01D
:100C5000010006492039088002231E2204210120B8
:100C6000FFF79AFE10BD0000001002402C08004063
:100C7000164AD26942F00802144BDA61144A108015
:100C8000121F1180124A143A128842F4E042104BAB
:100C9000143B1A801A46128842F400621A800C4AE9
:100CA0000C3A128842F01002094B0C3B1A801A468B
:100CB000128842F020021A808022054B2C3B1A80B9
:100CC0001A46128842F001021A8070470010024052
:100CD0002C0C00401D49098801F0200111B31B496B
:100CE000091D0988C8B21A49098801F40041C9B927
:100CF0001749098801F4804161B10A2803D0002115
:100D0000134A118020E01249098841F40041104A39
:100D1000118019E00D2806D10D49098841F4804160
:100D20000B4A118010E00A490988C1F30D01094AF4
:100D3000505407490988491C054A11801146098801
:100D4000C72901DD002111807047000000380140F3
:100D5000500100206C0300200FB4084B10B504A90B
:100D600002AA039800F01CF8044602A9002000F033
:100D7000C1F8204610BC5DF814FB0000F50E000819
:100D800002E008C8121F08C1002AFAD17047704754
:100D9000002001E001C1121F002AFBD170470000B2
:100DA0002DE9FF4F89B09B460446002506E0252823
:100DB0000BD05A460B999047641C6D1C2078002874
:100DC000F5D10DB02846BDE8F08F0027B8460122C6
:100DD000474900E0074314F8013F203B02FA03F0C3
:100DE0000842F7D120782E2819D114F8010F47F0C6
:100DF00004072A280ED06FF02F022078A0F13001CE
:100E000009290CD808EB880102EB410100EB01082D
:100E1000641CF2E70A98641C50F8048B0A9020784E
:100E20000028CED0642808D0692806D075281ED0A6
:100E30005A460B9990476D1C58E00A994FF00A09E1
:100E400001C90A91002802DA40422D2102E0390549
:100E500004D52B218DF82010012103E0F90704D0DF
:100E60002021F7E78A4608AE0DE00021FAE70A994B
:100E70004FF00A0901C90A91F7E74946FFF751FA0D
:100E8000303106F8011D0028F7D1ADEB060000F166
:100E90002009780701D44FF00108C84502DDA8EB0E
:100EA000090000E000208046002706E008A85A4616
:100EB000C05D0B9990476D1C7F1C5745F6DB04E025
:100EC00030205A460B9990476D1CB8F10001A8F1EB
:100ED0000108F5DC05E016F8010B5A460B9990471E
:100EE0006D1CB9F10001A9F10109F4DC641C65E78E
:100EF000092801000A68531C0B601070704710B578
:100F000000F004F8002000F003FE10BD10B5302002
:100F100000F094FC802000F091FC002404E02020EC
:100F200000F0A6FC601CC4B2402CF8DB10BD000031
:100F3000642005490860782048600A2088601E20E7
:100F4000C8600248086170475803002018FCFFFF82
:100F500010B50B48007820B1012803D002280DD12C
:100F60000BE00BE007480168012000F09BFC0548FE
:100F70000168022000F096FC00E000BF00BF10BD39
:100F800044010020580300204FF0E021096921F0BE
:100F900004014FF0E0221161C21700EB5272C2F35C
:100FA000C702074B1A701946097801EB4102C2EBE0
:100FB000C1114FF6FF7202EAC101024A1180704767
:100FC000460100204801002001460D4A12884A438C
:100FD0004FF0E0235A6100229A6101221A6100BF9A
:100FE0004FF0E022106900F001021AB100F48032E3
:100FF000002AF5D000224FF0E0231A619A61704771
:101000004801002001460D4A12784A434FF0E02380
:101010005A6100229A6101221A6100BF4FF0E0225A
:10102000106900F001021AB100F48032002AF5D0F4
:1010300000224FF0E0231A619A61704746010020B8
:1010400070B5342000F0FAFB002412E004F18001B6
:10105000C8B200F0F3FB802000F0F0FB002504E0B4
:10106000002000F005FC681CC5B2102DF8DB601CE8
:10107000C4B2202CEADB002412E004F18001C8B2E3
:1010800000F0DCFB882000F0D9FB002504E0002004
:1010900000F0EEFB681CC5B2102DF8DB601CC4B27A
:1010A000202CEADB342000F0C9FB70BD2DE9FF41A4
:1010B000002000900190029003903448006800687E
:1010C00000285CDD3148006800218268084600F095
:1010D00069F82E4800680079032801DA012607E044
:1010E0002A4800680079032190FBF1F0401CC6B249
:1010F000002434E0701E00EB40002044C5B22348B9
:1011000000680068A84222DD6A1C21A16846FFF73A
:1011100023FE611CC8B26A46002100F043F81B4957
:1011200009680C3151F82520611CC8B2012100F07A
:1011300039F816480068406B50F82500006860B127
:10114000611CC8B213A2072100F02CF805E0611C55
:10115000C8B211A2002100F025F8601CC4B2032C13
:10116000C8DB0A4800680079032190FBF1F201FB1B
:101170001200801CC7B2384600F0CAFC03E00349E5
:101180000968C86B8047BDE8FF810000400100206E
:1011900025640000100000002020202020202020B6
:1011A0000000000070B505460E461446082101FBFC
:1011B0000561064A505C00F041FB03E014F8010BA6
:1011C00000F056FB20780028F8D170BD53010020B4
:1011D00010B5FFF749FB04466420B4FBF0F0044966
:1011E0000968401A034908600846006810BD0000FD
:1011F000A4010020A801002010B500200F490860BC
:101200000F49C1F8A4016420FFF7DEFE01200B495D
:10121000091D08601420FFF7D7FE302000F00EFBF8
:101220000C2000F00BFB012000F008FB022000F076
:1012300005FB802000F002FB10BD0000A00122424F
:101240000000224210B54B490968880000F096F969
:10125000484948630020496B086047484549496B45
:10126000486046484349496B88600020414988638B
:101270004348086443484864434888644348C86412
:101280003D490968880000F079F93B4948634048C6
:10129000496B08603F483849496B486035483649D2
:1012A000886337480864374848643B48886437484F
:1012B000C86432490968880000F060F92F49486322
:1012C0003648496B086036482C49496B48603148BC
:1012D0002A49496B88602949496BC8602749496B8D
:1012E00008612649496B48612449496B8861234953
:1012F000496BC8611F482149886321480864214817
:101300004864254888642148C86426482349C8633E
:101310001A4888631C48086448641F488864224847
:10132000C86422481A49C863134888631648086489
:101330004864194888641448C8641D481549C8633E
:101340000E488863104808644864134888640E484F
:10135000C86418481249C863084888631648086476
:10136000164848640C4888640748C8640148144912
:10137000086010BD0000002050000020A0000020E8
:1013800039140008E9130008C513000811140008F7
:1013900054020020A4020020C91300080402002007
:1013A000F4020020C5060008911700086106000835
:1013B0008D070008F50500086D1400085914000891
:1013C000400100207047000010B506480068806B9F
:1013D00030B1FFF794FD03480068806B0149086055
:1013E00010BD00004001002008480068017907484E
:1013F00000680068401E814206DA044800680079EF
:10140000401C024909680871704700004001002033
:1014100010B5FFF774FD07480068406B054909687F
:10142000097950F821000349086000200968087113
:1014300010BD000040010020064800680079002827
:1014400006DD044800680079401E024909680871F9
:1014500070470000400100200120034988704FF4CC
:10146000C8704860704700009401002000200349C4
:1014700088704FF4C87048607047000094010020E5
:101480001549096809B9012100E00021124A083212
:1014900012680AB1012200E0002201EB42010E4A6B
:1014A000121D12680AB1012200E0002201EB820144
:1014B000094A0C3212680AB1012200E0002201EB55
:1014C000C20181F0FF000549097841400140044A0A
:1014D0001170024908707047040123424B0100203B
:1014E0004A01002000240920FFF7B0FA4820FFF746
:1014F0004BFDFEF7A1FFFFF711FBFFF753FBFFF7D3
:1015000099FB472144F61F60FFF7B2FB4FF4E1312E
:10151000482000F039FAFFF76FFE0022154B8020BB
:10152000FFF76EF9FFF704FDFFF78CFE00F05EF9A0
:10153000FFF782F91CE00025FFF7A2FFFFF7C6F9CD
:10154000642C01DD002401E0601CC4B2642C09D1CC
:10155000FFF7ACFD0848006808B9012000E0002052
:1015600005490860FFF7F4FC0120FFF72DFD00BFDF
:10157000E1E700000000F03FA4812142F0B50B300C
:10158000154D20F007010024144A0FE003688B4238
:101590000BD38B4205D95E1A43184768C3E900672D
:1015A00000E04368136002C004E0021D10680028D8
:1015B000ECD12046002802D1286808B10020F0BDF7
:1015C000064A07481060074A121A22F00702C0E9CB
:1015D000002401202860D7E7B0010020AC010020E2
:1015E0003C0400203804002010B51248407811490E
:1015F00089894843104991FBF0F084B22046FFF7F7
:101600006DFA0E4840780D49898948430A4991FB93
:10161000F0F084B22046FFF79BFA09484078084969
:1016200089894843044991FBF0F084B22046FFF7D2
:10163000D7FA10BD9401002080F52000740100202D
:101640008401002017480078C8B91648807801281E
:1016500002D11549086002E00020134908601248D1
:10166000001D006808B9012000E000200E49091D96
:1016700008600C488068401C0A49886011E00948ED
:10168000406870B10848001D006808B9012000E0FA
:1016900000200549091D086002484068401E0149B4
:1016A0004860704774010020900121421C48007876
:1016B000C8B91B488078012802D11A49086002E0A5
:1016C00000201849086017480C38006808B9012044
:1016D00000E0002013490C39086011488068401C64
:1016E0000F4988601BE00E488078012802D10D491F
:1016F000086002E000200B4908600948406870B1AA
:1017000008480C38006808B9012000E000200549AD
:101710000C39086002484068401E01494860704723
:1017200094010020AC01214217480078C8B916483E
:101730008078012802D11549086002E00020134991
:1017400008601248001D006808B9012000E0002070
:101750000E49091D08600C488068401C0A498860D1
:1017600011E00948406870B10848001D006808B9D8
:10177000012000E000200549091D0860024840687A
:10178000401E0149486070478401002098012142B1
:1017900010B51448807B08B9012000E000201149F1
:1017A00088731148807B08B9012000E000200E49B1
:1017B00088730C48807B012805D100200949886086
:1017C000FFF7D4F901E0FFF7C9F90748807B01284A
:1017D00005D1002004498860FFF710FA01E0FFF707
:1017E00005FA10BD740100208401002010B5FFF738
:1017F000FBFE10BD70B5044600251AE000200E491E
:10180000086004F0800018B10120091D086003E0A1
:1018100000200949091D08600220FFF7F3FB0120A1
:10182000054908606006040E0220FFF7EBFB681C08
:10183000C5B2082DE2DB70BD9801224210B5044606
:10184000012009490860F820FFF7D4FF04F0F000F8
:10185000FFF7D0FF2107080EFFF7CCFF0020034958
:10186000C1F8A00110BD0000A001224200002242E8
:1018700010B50446012009490860FA20FFF7BAFFB5
:1018800004F0F000FFF7B6FF2107080EFFF7B2FFE4
:1018900000200349C1F8A00110BD0000A0012242B0
:1018A0000000224270B505460C46012D2ED1002CB9
:1018B00015DB31488089A0425CD001202F490860A7
:1018C0002D4988708C8108464078898948432C4985
:1018D00091FBF0F086B23046FFF73AF94AE026492C
:1018E0008989CC4246D0002024490860224988706A
:1018F000604288810846407889894843204991FBA5
:10190000F0F086B23046FFF723F933E0022D30D1F4
:10191000002C16DB1B488089A0422BD001201749E0
:1019200008310860174988708C8108464078898999
:101930004843134991FBF0F086B23046FFF750F967
:1019400018E010498989CC4214D000200B49083195
:1019500008600C498870604288810846407889890F
:101960004843074991FBF0F086B23046FFF738F95B
:1019700000E000BF70BD0000740100209001214212
:1019800080F52000840100202DE9F05F05460E4619
:101990003001FEF7ADFC81462E4905FB01F0FEF754
:1019A000A7FC82464946FEF765FC07463846FEF727
:1019B000A4FC84B22046FEF79BFC83463946FEF722
:1019C00024FC82464FF08341FEF722FC8146FEF75D
:1019D00094FC80464FF6FF7000EA041404EB080004
:1019E00084B21D48806940F004001B4988610846A4
:1019F000806940F4804088611848006820F47F6066
:101A0000164908600846006840F40B6008601248F8
:101A1000C06840F480401049C8600846C06820F49F
:101A20008040C8600E480480001D008842F20C010E
:101A300008430B49091D08800846008840F0200033
:101A400008800223252203210846FEF7A5FFBDE8F2
:101A5000F09F000040420F000010024004080140C7
:101A6000083801402DE9F05F05460F46904699463B
:101A70000A98012801D1FFF7E3FA802615B98025DD
:101A800010240DE0012D02D18025202408E0022D34
:101A900002D18825102403E0032D01D188252024BC
:101AA000E81900F0FF0B28E0C2463420FFF7C6FE1D
:101AB0003046FFF7C3FE5846FFF7C0FE3020FFF761
:101AC000BDFE13E0102C03DD0020FFF7D1FE09E07E
:101AD000B9F1010F03D1FF20FFF7CAFE02E0002099
:101AE000FFF7C6FEAAF1010000F0FF0ABAF1000FED
:101AF000E8D1701CC6B2601EC4B2002CD4D136200E
:101B0000FFF79CFE3020FFF799FEBDE8F09F000034
:101B100038B504467CB91048007884421AD00120B8
:101B200000231022194600900B480078FFF79AFF17
:101B3000094804700EE00848007884420AD0012069
:101B4000611E0090C8B2012310220021FFF78AFF16
:101B50000148047038BD000052010020CFD4CABE35
:101B6000B2E2CAD431000000B2CECAFD3200000099
:101B7000B2CBB5A533000000B2CBB5A53400000050
:101B8000B2CBB5A535000000B2CBB5A5360000003C
:101B9000B2CBB5A537000000B2CBB5A53800000028
:101BA0004D6F746F724F6E652E5265764D6F746F08
:101BB000724F6E652E4469720000000020202020C4
:101BC000D6F7B2CBB5A50000CFD4CABE0000000046
:101BD00020202020C9E8D6C300000000CEA2D0CD2E
:101BE000BBACCCA8B2E2CAD4000000002020202068
:101BF000B8FCB6E000000000D4CBD0D0B2CECAFD15
:101C000000000000241C000800000020B4010000B7
:101C1000E00300089C1C0008B401002084060000BA
:101C2000900D0008720313BC1B1B08C8041AD404CF
:101C30001AF004013872021AD0441AF8040A3968FA
:101C40004C41693D1AEC481A5C041ADC041A700411
:101C50001A78041A80041A88041A90040A259868CD
:101C60001AFF0169A00A3DA09C01171821808182FA
:101C70008384858687909192939495969788898A94
:101C80008B8C8D8E8F98999A9B9C9D9E9FD592014F
:0C1C90003A6EE5C9108B01011002132808
:0400000508000131BD
:00000001FF
